:020000020000FC
:1000000044E05DE068E00E940500483000F54730BC
:10001000E0F44630C0F44530A0F4443080F443307E
:1000200060F4423040F4413020F4403000F40C944D
:1000300029000C9435000C9441000C9452000C944F
:100040006B000C9488000C94B0000C94D8000C94B5
:10005000040100271127561720F0052F162F0C94A6
:100060003001062F152F0C943001882777270027A1
:10007000762F852F7A95580F7A95E9F7052F0C94EE
:100080003001002711277727561728F4752F562F90
:10009000672F0C944B00561B152F03955617D8F756
:1000A0000C943001002711277727561728F4752F55
:1000B000562F672F0C945C005617152F20F0561BF7
:1000C00003950C945C00113018F401E00C9430019D
:1000D00000E00C943001F2E000271127EE27652F95
:1000E000E0E05F17152F20F05F1B03950C94710063
:1000F000E11740F4562F00271127F395F51788F3E1
:100100000C94850000E00C94300101E00C94300167
:10011000F2E000271127EE27E0E0561700F4752FD4
:10012000562F672F0C949400752F5F17152F20F012
:100130005F1B03950C949500E11740F4572F00279F
:100140001127F395F51788F30C94AD007395572F8D
:1001500000271127F2E00C949500072F0C94300132
:10016000F2E000271127EE27E0E0561728F4752F5C
:10017000562F672F0C94BC00752F5F17152F20F09A
:100180005F1B03950C94BD00E11740F4572F002727
:100190001127F395F51788F30C94D5007A95572F0E
:1001A00000271127F2E00C94BD00072F0C943001BA
:1001B000F2E0E0E0D1E0C3E0B0E0A0E000275617B5
:1001C00038F4752F562F672FA62FB62F0C94E80002
:1001D0006F17162F20F06F1B03950C94E800113059
:1001E00028F40C94F30000E00C943001AC171A2FA3
:1001F00020F0AC1B03950C94F6001130A0F70C9482
:1002000001010B2F0C9430010027E0E0F2E0D1E077
:1002100080E097E0B0E0561738F4752F562F672F1F
:10022000B62FA62F0C9414016F17162F20F06F1BFA
:1002300003950C941401113010F40C942A01A917A1
:100240001A2F20F0A91B03950C941F01113010F4F4
:100250000C942D0100E00C943001082F0C94300117
:00000001FF
